S01F0000454345543237395F4C6162385F496E74657272757074732E73726563FD
S113000071C00000E4C00000CAC000008AC0000043
S113001088C0000086C0000084C0000082C00000C8
S113002080C000007EC000007CC000007AC00000D8
S113003078C0000076C0000074C0000072C00000E8
S113004070C0000088C000006CC000006AC00000DE
S113005068C0000066C0000064C0000062C0000008
S113006060C000005EC000005CC000005AC0000018
S113007058C00000CDC0000054C0000052C00000B1
S113008050C000004EC000004CC000004AC0000038
S113009048C0000046C0000044C0000042C0000048
S11300A040C000003EC000003CC000003AC0000058
S11300B038C0000036C0000034C0000032C0000068
S11300C030C000002EC000002CC000002AC0000078
S11300D028C0000026C0000024C0000022C0000088
S11300E020C0000011241FBECFEFD1E2DEBFCDBF80
S11300F000E00CBF12E0A0E0B2E0E0E6F3E000E0D4
S11301000BBF02C007900D92A230B107D9F722E0CD
S1130110A2E0B2E001C01D92A930B207E1F7E3D03A
S11301201DC16ECFAAE7B0E08C9187688C931092C2
S11301307B00ECE7F0E08081806480838C918860B0
S11301408C938081807480830895EAE7F0E0808155
S11301508064808308951F920F920FB60F9211242A
S11301608F939F93109285001092840080910502D2
S11301709091060201969093060280930502809165
S11301800302909104020196909304028093030267
S11301909F918F910F900FBE0F901F9018951F92F3
S11301A00F920FB60F9211248F93809100028F5FEC
S11301B08093000280910002843018F081E08093E3
S11301C000028F910F900FBE0F901F9018951F92F1
S11301D00F920FB60F9211248F93379B0AC0809110
S11301E00202882379F080910202815080930202F6
S11301F009C080910202883028F4809102028F5F46
S1130200809302028F910F900FBE0F901F9018954C
S11302101F920F920FB60F9211242F933F938F9337
S11302209F938091780090E0909308028093070256
S11302308091790090E0982F8827209107023091CF
S11302400802822B932B90930802809307029F91BC
S11302508F913F912F910F900FBE0F901F90189583
S11302608FEF81B912B817B888B980930A01109238
S11302700B0110BA11BA8AB18C7F8AB98BB1836031
S11302808BB98DB383608DBBE9E6F0E080818E602D
S1130290808308958091050290910602853F9140E4
S11302A038F082B1809582B910920602109205024C
S11302B008954BDF809107029091080296958795E7
S11302C09695879582B908958091020228E030E0DE
S11302D0281B31098FEF90E002C0959587952A95E8
S11302E0E2F782B90895BCDF1DDF1FD078948091B6
S11302F00002823031F0833031F0813029F4CADFDA
S113030003C0D7DF01C0E0DF8091030290910402B3
S1130310853F914060F3EBE0F1E08081809580833C
S11303201092040210920302E2CF10928500109200
S1130330840010928000E1E8F0E080818160808395
S11303401092820080E89EE3909389008093880055
S1130350EFE6F0E08081826080830895F894FFCF17
S1050360010096
S9030000FC
