S0230000454345543237395F4C6162345F57617368696E674D616368696E652E73726563B7
S113000071C000008EC000008CC000008AC00000D7
S113001088C0000086C0000084C0000082C00000C8
S113002080C000007EC000007CC000007AC00000D8
S113003078C0000076C0000074C0000072C00000E8
S113004070C000006EC000006CC000006AC00000F8
S113005068C0000066C0000064C0000062C0000008
S113006060C000005EC000005CC000005AC0000018
S113007058C0000056C0000054C0000052C0000028
S113008050C000004EC000004CC000004AC0000038
S113009048C0000046C0000044C0000042C0000048
S11300A040C000003EC000003CC000003AC0000058
S11300B038C0000036C0000034C0000032C0000068
S11300C030C000002EC000002CC000002AC0000078
S11300D028C0000026C0000024C0000022C0000088
S11300E020C0000011241FBECFEFD1E2DEBFCDBF80
S11300F000E00CBF12E0A0E0B2E0EAE3F4E000E0CC
S11301000BBF02C007900D92AC30B107D9F722E0C3
S1130110ACE0B2E001C01D92AD30B207E1F70CD003
S11301208AC16ECF11B88FEF82B987B918B880939E
S11301300A0110920B010895F5DF09D0079BFECF49
S11301400099FCCF38D08E34C9F3C9D0F7CF1092C0
S11301508500109284001092800010928100109209
S1130160820080E89EE3909389008093880008953C
S1130170E1E8F0E0808181608083B19BFECF109242
S1130180810086B3826086BB109285001092840041
S113019008950F931F93CF93DF938C01C0E0D0E0B9
S11301A002C0E6DF2196C017D107D8F3DF91CF91C3
S11301B01F910F910895CF93DF9380B18C71883094
S11301C049F0803119F08430C1F408C088E4809388
S11301D00C021BC087E580930C0217C083E4809354
S11301E00C0213C0EBE0F1E0908180E38927808367
S11301F08AEF90E0CEDF219602C0C0E0D0E0C430A8
S1130200D10584F38EE480930C0280910C02DF917B
S1130210CF910895883429F0873549F0833491F4D7
S11302200CC0EBE0F1E08081806280830BC0EBE0E6
S1130230F1E080818063808305C0EBE0F1E08081A0
S11302408061808380EA9FE0A4DFEBE0F1E08081BD
S11302508F7C8083089564E070E081E490E04BD06B
S113026064E070E081E490E046C00895CF93DF93AA
S1130270CBE0D1E088818860888380EA9FE089DFD1
S11302808881877F8883DF91CF9108956CE070E047
S113029081E490E030C00895CF93DF93CBE0D1E0C8
S11302A088818860888388EE93E073DF69E070E07A
S11302B083E590E020D08881877F8883DF91CF9188
S11302C0089505C0EBE0F1E0808181608083009BAC
S11302D0F9CFEBE0F1E080818E7F808308958091F7
S11302E00C0298DFB8DFC2DF80910C0293DFCEDF0F
S11302F0D3DFE7CF0895813441F1833509F073C02A
S113030028EE33E0629FC001639F900D11246CE0DE
S113031070E06AD040E050E014C0FC01E85FFD4F9B
S1130320208128B9EFEDFEE23197F1F700C000001B
S1130330019602C080E090E08430910570F34F5F35
S11303405F4F46175707B0F3089528EE33E0629FD6
S1130350C001639F900D112460E370E045D0A0E0DC
S1130360B0E034C0FC01E050FE4F208128B9EFEB2F
S1130370FDE53197F1F700C00000019602C080E06E
S113038090E08830910570F34F5F5F4F02C040E00A
S113039050E04932510598F340E050E013C0FC01AD
S11303A0E050FE4F208128B9EFEBFDE53197F1F7DE
S11303B000C00000019702C088E090E0009779F740
S11303C04F5F5F4F49325105B8F31196CB010024BA
S11303D0880F991F001C880F991F001C892F902DCE
S11303E0A817B907A0F2089597FB072E16F40094F6
S11303F006D077FD08D00BD007FC05D03EF49095CD
S113040081959F4F0895709561957F4F0895AA1B1C
S1130410BB1B51E107C0AA1FBB1FA617B70710F0EB
S1130420A61BB70B881F991F5A95A9F7809590951D
S10D0430BC01CD010895F894FFCF3C
S10F043A0901030206040C0803060C0967
S9030000FC
