S01C0000454345543237395F4C6162395F4C4344554152542E7372656330
S113000071C0000081C000007FC000007DC00000FE
S11300107BC0000079C0000077C0000075C00000FC
S113002073C0000071C000006FC000006DC000000C
S11300306BC0000069C0000067C0000065C000001C
S113004063C0000061C000005FC000005DC000002C
S11300505BC0000059C0000057C0000055C000003C
S113006053C00000B0C000004FC000004DC00000ED
S11300704BC0000049C0000047C0000045C000005C
S113008043C0000041C000003FC000003DC000006C
S11300903BC0000039C0000037C0000035C000007C
S11300A033C0000031C000002FC000002DC000008C
S11300B02BC0000029C0000027C0000025C000009C
S11300C023C0000021C000001FC000001DC00000AC
S11300D01BC0000019C0000017C0000015C00000BC
S11300E013C0000011241FBECFEFD1E2DEBFCDBF8D
S11300F000E00CBF22E0A0E0B2E001C01D92AC31F0
S1130100B207E1F79FD0E4C07BCF813011F48BB903
S113011001C01BB85A9A60930B0187EC90E00197D9
S1130120F1F700C000008BB181708BB987EC90E0CF
S11301300197F1F700C0000008952FE785EB91E0E7
S1130140215080409040E1F700C0000068E380E067
S1130150DCDF87EC90E00197F1F700C000006CE071
S113016080E0D3DF87EC90E00197F1F700C0000056
S113017061E080E0CADF8FE39FE10197F1F700C0FF
S1130180000066E080E0C1CF089521E02BB9FC01B6
S113019020812223B9F0ABE0B1E05A9A81918C938B
S11301A087EC90E00197F1F700C000009BB19170DB
S11301B09BB987EC90E00197F1F700C000008081C3
S11301C08111EBCF08951F920F920FB60F92112455
S11301D00BB60F928F93EF93FF938091C600809399
S11301E01A0280911A028D3071F0E0910002F0E061
S11301F080911A02EF5FFD4F8083809100028F5F30
S1130200809300020BC0E0910002F0E0EF5FFD4F2D
S113021010821092000281E080931B02FF91EF9103
S11302208F910F900BBE0F900FBE0F901F901895DB
S11302308FEF80930A0110920B0197E09AB911B8DD
S113024082B90895F5DF79DF2FD0789461E080E0FA
S11302505CDF8FE39FE10197F1F700C0000062E0EB
S113026080E053DF8FE39FE10197F1F700C00000C6
S113027080911B028823E1F310921B0261E080E06D
S113028044DF8FE39FE10197F1F700C0000061E8CC
S113029080E03BDF87EC90E00197F1F700C00000BD
S11302A081E092E072DFE4CFE0ECF0E080818083D3
S11302B0E1ECF0E0808188698083E2ECF0E0808109
S11302C08660808387E68093C4001092C5000895F9
S10702D0F894FFCFCC
S9030000FC
