S0180000454345543237395F4C6162365F50574D2E7372656352
S113000071C000008EC000008CC000008AC00000D7
S113001088C0000086C0000084C0000082C00000C8
S113002080C000007EC000007CC000007AC00000D8
S113003078C0000076C0000074C0000072C00000E8
S113004070C000006EC000006CC000006AC00000F8
S113005068C0000066C0000064C0000062C0000008
S113006060C000005EC000005CC000005AC0000018
S113007058C0000056C0000054C0000052C0000028
S113008050C000004EC000004CC000004AC0000038
S113009048C0000046C0000044C0000042C0000048
S11300A040C000003EC000003CC000003AC0000058
S11300B038C0000036C0000034C0000032C0000068
S11300C030C000002EC000005FC100002AC0000044
S11300D028C0000026C0000024C0000022C0000088
S11300E020C0000011241FBECFEFD1E2DEBFCDBF80
S11300F000E00CBF12E0A0E0B2E0E0EAF6E000E0CD
S11301000BBF02C007900D92A037B107D9F722E0C8
S1130110A0E7B2E001C01D92A237B207E1F76FD1A8
S1130120BDC26ECFE1E2F1E080818560808385EE1F
S113013099EF909325018093240181E080937300CB
S1130140089588E18093C10086E08093C20083E033
S113015090E09093C5008093C4000895F2DFE2DF3D
S1130160789408959091C00095FFFCCF8093C600C9
S113017008958091C00085FFFCCF8AE08093C6007B
S11301800895CF93DF93EC0102C0ECDF21968881C0
S11301908111FBCFDF91CF910895CF93C0E00CC0C4
S11301A0EC2FF0E0EE0FFF1FEC5BFD4F0190F081B0
S11301B0E02D8081D7DFCF5FC23190F3CF910895D6
S11301C0CF93DF93C0E00CC0EC2FF0E0EE0FFF1FE5
S11301D0E85EFD4F0190F081E02D8081C3DFCF5FA9
S11301E0C33090F3C8E1D2E0EE81FF818081BADFB1
S11301F0EE81FF818181B6DFE885F9858081B2DFF8
S1130200E885F9858181AEDFC5E00CC0EC2FF0E014
S1130210EE0FFF1FE85EFD4F0190F081E02D80811D
S1130220A1DFCF5FC83090F3C8E1D2E0E889F98953
S1130230808198DFE889F989818194DFEA89FB89E3
S1130240808190DFEA89FB8981818CDFEC89FD89DB
S1130250808188DFEC89FD89818184DFCBE00CC05B
S1130260EC2FF0E0EE0FFF1FE85EFD4F0190F081F0
S1130270E02D808177DFCF5FCE3090F3C8E1D2E00C
S1130280EC8DFD8D80816EDFEC8DFD8D81816ADFCB
S1130290EE8DFF8D808166DFEE8DFF8D818162DFC3
S11302A0C0E10CC0EC2FF0E0EE0FFF1FE85EFD4F45
S11302B00190F081E02D808155DFCF5FC33190F351
S11302C0C8E1D2E0EEA1FFA180814CDFEEA1FFA145
S11302D0818148DFE8A5F9A5808144DFE8A5F9A577
S11302E0818140DFEAA5FBA580813CDFEAA5FBA56F
S11302F0818138DFDF91CF910895CF93C0E00CC0A6
S1130300EC2FF0E0EE0FFF1FE45FFD4F0190F08152
S1130310E02D808127DFCF5FC63090F3CF91089521
S1130320CF93C0E00CC0EC2FF0E0EE0FFF1FEA5FAC
S1130330FD4F0190F081E02D808114DFCF5FC33049
S113034090F3CF910895CF93C0E00CC0EC2FF0E070
S1130350EE0FFF1FE050FE4F0190F081E02D8081F1
S113036001DFCF5FC33090F3CF9108958CE692E024
S113037008DFFFDE12DF24DFC0DFD2DFE4DF88E640
S113038092E0FFDEF6CE08951F920F920FB60F9201
S113039011240BB60F922F933F934F935F936F9358
S11303A07F938F939F93AF93BF93EF93FF9385EEC8
S11303B099EF9093250180932401D8DFFF91EF9169
S11303C0BF91AF919F918F917F916F915F914F9169
S11303D03F912F910F900BBE0F900FBE0F901F9067
S11303E0189511B88FEF82B98DB188608DB91EB898
S11303F087B1816087B918B810BA11BA0895F1DFCE
S1130400ADDE59D08CD02BD0039B19C0009B08C003
S113041023E030E048E050E06AE58AE095D0F4CF8C
S113042098B181E0892788B984EF91E066D0ECCF58
S113043088B18E7F88B920D09695879531D0039B5B
S1130440F7CF109299001092980010929500109294
S11304509400E1E9F0E080818D7F8083D5CFEAE7E5
S1130460F0E080818768808310927B00ECE7F0E005
S11304708081806480830895ECE7F0E0808180745B
S11304808083EAE7F0E0808180648083808120912A
S113049078008091790090E0982F8827822B089526
S11304A09C01E1E9F0E0908192609083309399009F
S11304B02093980008951092850010928400109261
S11304C08000109281001092820080E89EE3909355
S11304D08900809388000895E1E8F0E080818160DC
S11304E08083B19BFECF1092810086B3826086BB6D
S11304F0109285001092840008950F931F93CF9358
S1130500DF938C01C0E0D0E002C0E6DF2196C01783
S1130510D107D8F3DF91CF911F910F9108951092D5
S1130520950010929400E0E9F0E080818268808375
S1130530E1E9F0E08081886080831092920010925B
S11305409900109298000895CF92DF92EF92FF9253
S11305500F931F93CF93DF93D82EC62E8A01790170
S11305604FC02D2D30E08C2D90E0821B930BB801F1
S11305705FD07093710260937002E1E9F0E08081D2
S1130580826080839D2D990F80E064E670E064D0E2
S11305907093990060939800C0E0D0E02DC0019959
S11305A02FC04091700250917102849F9001859FE9
S11305B0300D949F300D11242D0D311D322F222723
S11305C0330F3695279536952795ABE7B4E157D089
S11305D096958795909399008093980028EE33E040
S11305E0E29EC001E39E900DF29E900D1124B8018D
S11305F01FD0CB0182DF2196CE010C171D0778F6A0
S1130600019BAFCF10929900109298001092950020
S113061010929400E1E9F0E080818D7F8083DF9186
S1130620CF911F910F91FF90EF90DF90CF9008959D
S1130630AA1BBB1B51E107C0AA1FBB1FA617B70704
S113064010F0A61BB70B881F991F5A95A9F7809520
S11306509095BC01CD01089597FB072E16F40094E4
S113066006D077FD08D0E4DF07FC05D03EF4909572
S113067081959F4F0895709561957F4F0895A29F2E
S1130680B001B39FC001A39F700D811D1124911D62
S1130690B29F700D811D1124911D0895F894FFCF10
S11306A069006A003D007A007B007C00C000C10044
S11306B0C200C800C900CA00440045006E004700DB
S11306C04800800081006F0088008A008C00B00020
S11306D0B1007000B300B400900091007100980064
S11306E09A009C00210022002000270028002600F8
S11306F00A010B0109012A002B00290030003100F6
S11307002F00070108010601454E44005354000020
S9030000FC
